{
  "contractName": "DappyBet",
  "abi": [
    {
      "constant": true,
      "inputs": [
        {
          "name": "",
          "type": "uint256"
        }
      ],
      "name": "games",
      "outputs": [
        {
          "name": "id",
          "type": "uint256"
        },
        {
          "name": "lockTime",
          "type": "uint256"
        },
        {
          "name": "active",
          "type": "bool"
        },
        {
          "name": "winner",
          "type": "uint256"
        },
        {
          "name": "status",
          "type": "uint8"
        }
      ],
      "payable": false,
      "stateMutability": "view",
      "type": "function"
    },
    {
      "constant": true,
      "inputs": [
        {
          "name": "",
          "type": "uint256"
        },
        {
          "name": "",
          "type": "uint256"
        }
      ],
      "name": "gameBets",
      "outputs": [
        {
          "name": "amount",
          "type": "uint256"
        },
        {
          "name": "staker",
          "type": "address"
        },
        {
          "name": "gameId",
          "type": "uint256"
        },
        {
          "name": "betOn",
          "type": "uint256"
        },
        {
          "name": "paid",
          "type": "bool"
        }
      ],
      "payable": false,
      "stateMutability": "view",
      "type": "function"
    },
    {
      "constant": true,
      "inputs": [
        {
          "name": "",
          "type": "uint256"
        }
      ],
      "name": "gamesMapping",
      "outputs": [
        {
          "name": "id",
          "type": "uint256"
        },
        {
          "name": "lockTime",
          "type": "uint256"
        },
        {
          "name": "active",
          "type": "bool"
        },
        {
          "name": "winner",
          "type": "uint256"
        },
        {
          "name": "status",
          "type": "uint8"
        }
      ],
      "payable": false,
      "stateMutability": "view",
      "type": "function"
    },
    {
      "constant": true,
      "inputs": [],
      "name": "teamsCount",
      "outputs": [
        {
          "name": "",
          "type": "uint256"
        }
      ],
      "payable": false,
      "stateMutability": "view",
      "type": "function"
    },
    {
      "constant": true,
      "inputs": [
        {
          "name": "",
          "type": "uint256"
        }
      ],
      "name": "matchStakesCount",
      "outputs": [
        {
          "name": "",
          "type": "uint256"
        }
      ],
      "payable": false,
      "stateMutability": "view",
      "type": "function"
    },
    {
      "constant": true,
      "inputs": [
        {
          "name": "",
          "type": "address"
        },
        {
          "name": "",
          "type": "uint256"
        }
      ],
      "name": "gamersBalances",
      "outputs": [
        {
          "name": "",
          "type": "uint256"
        }
      ],
      "payable": false,
      "stateMutability": "view",
      "type": "function"
    },
    {
      "constant": true,
      "inputs": [
        {
          "name": "",
          "type": "uint256"
        }
      ],
      "name": "gamesResults",
      "outputs": [
        {
          "name": "gameId",
          "type": "uint256"
        },
        {
          "name": "won",
          "type": "uint256"
        },
        {
          "name": "timestamp",
          "type": "uint256"
        }
      ],
      "payable": false,
      "stateMutability": "view",
      "type": "function"
    },
    {
      "constant": true,
      "inputs": [],
      "name": "gamesCount",
      "outputs": [
        {
          "name": "",
          "type": "uint256"
        }
      ],
      "payable": false,
      "stateMutability": "view",
      "type": "function"
    },
    {
      "inputs": [],
      "payable": false,
      "stateMutability": "nonpayable",
      "type": "constructor"
    },
    {
      "payable": true,
      "stateMutability": "payable",
      "type": "fallback"
    },
    {
      "anonymous": false,
      "inputs": [
        {
          "indexed": false,
          "name": "recipient",
          "type": "address"
        },
        {
          "indexed": false,
          "name": "amount",
          "type": "uint256"
        },
        {
          "indexed": false,
          "name": "gameId",
          "type": "uint256"
        }
      ],
      "name": "BetPaid",
      "type": "event"
    },
    {
      "anonymous": false,
      "inputs": [
        {
          "indexed": false,
          "name": "staker",
          "type": "address"
        },
        {
          "indexed": false,
          "name": "amount",
          "type": "uint256"
        },
        {
          "indexed": false,
          "name": "betId",
          "type": "uint256"
        }
      ],
      "name": "BetStaked",
      "type": "event"
    },
    {
      "anonymous": false,
      "inputs": [
        {
          "indexed": false,
          "name": "teamId",
          "type": "uint256"
        },
        {
          "indexed": false,
          "name": "teamName",
          "type": "string"
        }
      ],
      "name": "TeamCreated",
      "type": "event"
    },
    {
      "anonymous": false,
      "inputs": [
        {
          "indexed": false,
          "name": "gameId",
          "type": "uint256"
        },
        {
          "indexed": false,
          "name": "timestamp",
          "type": "uint256"
        }
      ],
      "name": "GameCreated",
      "type": "event"
    },
    {
      "constant": false,
      "inputs": [
        {
          "name": "_name",
          "type": "string"
        }
      ],
      "name": "createTeam",
      "outputs": [
        {
          "name": "",
          "type": "bool"
        }
      ],
      "payable": false,
      "stateMutability": "nonpayable",
      "type": "function"
    },
    {
      "constant": false,
      "inputs": [
        {
          "name": "locktime",
          "type": "uint256"
        },
        {
          "name": "_teams",
          "type": "uint256[]"
        }
      ],
      "name": "createGame",
      "outputs": [
        {
          "name": "",
          "type": "bool"
        }
      ],
      "payable": false,
      "stateMutability": "nonpayable",
      "type": "function"
    },
    {
      "constant": false,
      "inputs": [
        {
          "name": "_gameId",
          "type": "uint256"
        },
        {
          "name": "_teamId",
          "type": "uint256"
        }
      ],
      "name": "bet",
      "outputs": [
        {
          "name": "",
          "type": "bool"
        },
        {
          "name": "_betId",
          "type": "uint256"
        }
      ],
      "payable": true,
      "stateMutability": "payable",
      "type": "function"
    },
    {
      "constant": false,
      "inputs": [
        {
          "name": "_gameId",
          "type": "uint256"
        },
        {
          "name": "_winner",
          "type": "uint256"
        },
        {
          "name": "_scores",
          "type": "uint256[]"
        }
      ],
      "name": "setGameResults",
      "outputs": [
        {
          "name": "",
          "type": "bool"
        }
      ],
      "payable": false,
      "stateMutability": "nonpayable",
      "type": "function"
    },
    {
      "constant": false,
      "inputs": [
        {
          "name": "_gameId",
          "type": "uint256"
        }
      ],
      "name": "payOutWinners",
      "outputs": [
        {
          "name": "",
          "type": "bool"
        }
      ],
      "payable": true,
      "stateMutability": "payable",
      "type": "function"
    },
    {
      "constant": true,
      "inputs": [
        {
          "name": "_gameId",
          "type": "uint256"
        }
      ],
      "name": "isValidGamesId",
      "outputs": [
        {
          "name": "",
          "type": "bool"
        }
      ],
      "payable": false,
      "stateMutability": "view",
      "type": "function"
    },
    {
      "constant": true,
      "inputs": [
        {
          "name": "_gameId",
          "type": "uint256"
        }
      ],
      "name": "getGameFullDetails",
      "outputs": [
        {
          "components": [
            {
              "name": "id",
              "type": "uint256"
            },
            {
              "components": [
                {
                  "name": "id",
                  "type": "uint256"
                },
                {
                  "name": "name",
                  "type": "string"
                }
              ],
              "name": "involvedTeams",
              "type": "tuple[]"
            },
            {
              "name": "lockTime",
              "type": "uint256"
            },
            {
              "name": "active",
              "type": "bool"
            },
            {
              "name": "winner",
              "type": "uint256"
            },
            {
              "name": "status",
              "type": "uint8"
            }
          ],
          "name": "",
          "type": "tuple"
        }
      ],
      "payable": false,
      "stateMutability": "view",
      "type": "function"
    },
    {
      "constant": true,
      "inputs": [],
      "name": "getGamesCount",
      "outputs": [
        {
          "name": "",
          "type": "uint256"
        }
      ],
      "payable": false,
      "stateMutability": "view",
      "type": "function"
    },
    {
      "constant": true,
      "inputs": [],
      "name": "getTeamsCount",
      "outputs": [
        {
          "name": "",
          "type": "uint256"
        }
      ],
      "payable": false,
      "stateMutability": "view",
      "type": "function"
    },
    {
      "constant": true,
      "inputs": [
        {
          "name": "_teamId",
          "type": "uint256"
        }
      ],
      "name": "getTeamById",
      "outputs": [
        {
          "components": [
            {
              "name": "id",
              "type": "uint256"
            },
            {
              "name": "name",
              "type": "string"
            }
          ],
          "name": "team",
          "type": "tuple"
        }
      ],
      "payable": false,
      "stateMutability": "view",
      "type": "function"
    },
    {
      "constant": true,
      "inputs": [
        {
          "name": "_id",
          "type": "uint256"
        }
      ],
      "name": "isGameActive",
      "outputs": [
        {
          "name": "",
          "type": "bool"
        }
      ],
      "payable": false,
      "stateMutability": "view",
      "type": "function"
    },
    {
      "constant": true,
      "inputs": [
        {
          "name": "_teamId",
          "type": "uint256"
        }
      ],
      "name": "teamExists",
      "outputs": [
        {
          "name": "",
          "type": "bool"
        }
      ],
      "payable": false,
      "stateMutability": "view",
      "type": "function"
    },
    {
      "constant": true,
      "inputs": [
        {
          "name": "_gameId",
          "type": "uint256"
        }
      ],
      "name": "getWinnerTeam",
      "outputs": [
        {
          "name": "",
          "type": "uint256"
        }
      ],
      "payable": false,
      "stateMutability": "view",
      "type": "function"
    },
    {
      "constant": true,
      "inputs": [],
      "name": "getContractBalance",
      "outputs": [
        {
          "name": "",
          "type": "uint256"
        }
      ],
      "payable": false,
      "stateMutability": "view",
      "type": "function"
    },
    {
      "constant": true,
      "inputs": [],
      "name": "getContractAddr",
      "outputs": [
        {
          "name": "",
          "type": "address"
        }
      ],
      "payable": false,
      "stateMutability": "view",
      "type": "function"
    },
    {
      "constant": true,
      "inputs": [],
      "name": "getOwner",
      "outputs": [
        {
          "name": "",
          "type": "address"
        }
      ],
      "payable": false,
      "stateMutability": "view",
      "type": "function"
    },
    {
      "constant": true,
      "inputs": [
        {
          "name": "_gameId",
          "type": "uint256"
        },
        {
          "name": "_betId",
          "type": "uint256"
        }
      ],
      "name": "getBetById",
      "outputs": [
        {
          "components": [
            {
              "name": "amount",
              "type": "uint256"
            },
            {
              "name": "staker",
              "type": "address"
            },
            {
              "name": "gameId",
              "type": "uint256"
            },
            {
              "name": "betOn",
              "type": "uint256"
            },
            {
              "name": "paid",
              "type": "bool"
            }
          ],
          "name": "bet",
          "type": "tuple"
        }
      ],
      "payable": false,
      "stateMutability": "view",
      "type": "function"
    },
    {
      "constant": true,
      "inputs": [
        {
          "name": "_gameId",
          "type": "uint256"
        }
      ],
      "name": "getGameResults",
      "outputs": [
        {
          "components": [
            {
              "name": "gameId",
              "type": "uint256"
            },
            {
              "name": "won",
              "type": "uint256"
            },
            {
              "name": "scores",
              "type": "uint256[]"
            },
            {
              "name": "timestamp",
              "type": "uint256"
            }
          ],
          "name": "",
          "type": "tuple"
        }
      ],
      "payable": false,
      "stateMutability": "view",
      "type": "function"
    },
    {
      "constant": true,
      "inputs": [
        {
          "name": "_gameId",
          "type": "uint256"
        }
      ],
      "name": "getGameBets",
      "outputs": [
        {
          "components": [
            {
              "name": "amount",
              "type": "uint256"
            },
            {
              "name": "staker",
              "type": "address"
            },
            {
              "name": "gameId",
              "type": "uint256"
            },
            {
              "name": "betOn",
              "type": "uint256"
            },
            {
              "name": "paid",
              "type": "bool"
            }
          ],
          "name": "",
          "type": "tuple[]"
        }
      ],
      "payable": false,
      "stateMutability": "view",
      "type": "function"
    },
    {
      "constant": true,
      "inputs": [
        {
          "name": "_gameId",
          "type": "uint256"
        },
        {
          "name": "_wonTeam",
          "type": "uint256"
        }
      ],
      "name": "getGameBetWinnersCount",
      "outputs": [
        {
          "name": "",
          "type": "uint256"
        }
      ],
      "payable": false,
      "stateMutability": "view",
      "type": "function"
    },
    {
      "constant": false,
      "inputs": [],
      "name": "withdraw",
      "outputs": [],
      "payable": true,
      "stateMutability": "payable",
      "type": "function"
    }
  ],
  "bytecode": "0x608060405234801561001057600080fd5b50336000806101000a81548173ffffffffffffffffffffffffffffffffffffffff021916908373ffffffffffffffffffffffffffffffffffffffff16021790555061367d806100606000396000f3fe60806040526004361061016f576000357c0100000000000000000000000000000000000000000000000000000000900480630eb7cbfd14610171578063117a5b90146101ae57806317b7a476146101ef5780631a60a4e51461021a57806321d45ea21461025757806328ad30ed1461029457806329a948c6146102d55780633ccfd60b14610316578063553a4e23146103205780636f9fb98a146103505780636ffcc7191461037b5780637bfd6f6a146103ac5780637cd0aee5146103d757806384b4a53214610414578063893d20e814610451578063972fa53f1461047c57806397effb5e146104b957806398981756146104f657806399d652ac146105335780639e45593914610570578063a462805f1461059b578063c497bc4c146105d8578063d18da75414610603578063d8af70ac14610640578063dcef63eb1461067d578063e1141ab3146106ba578063efec3a5f146106f7578063fb1ae78314610736578063fb632b7c14610773575b005b34801561017d57600080fd5b5061019860048036036101939190810190612864565b61079e565b6040516101a591906132d0565b60405180910390f35b3480156101ba57600080fd5b506101d560048036036101d091908101906127e7565b610947565b6040516101e6959493929190613397565b60405180910390f35b3480156101fb57600080fd5b506102046109a6565b60405161021191906132d0565b60405180910390f35b34801561022657600080fd5b50610241600480360361023c91908101906127e7565b6109b0565b60405161024e91906130ab565b60405180910390f35b34801561026357600080fd5b5061027e60048036036102799190810190612864565b610b59565b60405161028b919061324f565b60405180910390f35b3480156102a057600080fd5b506102bb60048036036102b69190810190612864565b610c32565b6040516102cc9594939291906132eb565b60405180910390f35b3480156102e157600080fd5b506102fc60048036036102f791908101906127e7565b610cb1565b60405161030d959493929190613397565b60405180910390f35b61031e610d01565b005b61033a600480360361033591908101906127e7565b610ddd565b60405161034791906130ab565b60405180910390f35b34801561035c57600080fd5b5061036561131e565b60405161037291906132d0565b60405180910390f35b61039560048036036103909190810190612864565b611398565b6040516103a39291906130c6565b60405180910390f35b3480156103b857600080fd5b506103c16118cc565b6040516103ce91906132d0565b60405180910390f35b3480156103e357600080fd5b506103fe60048036036103f99190810190612810565b6118d6565b60405161040b91906130ab565b60405180910390f35b34801561042057600080fd5b5061043b600480360361043691908101906128a0565b611b20565b60405161044891906130ab565b60405180910390f35b34801561045d57600080fd5b50610466611c38565b6040516104739190613037565b60405180910390f35b34801561048857600080fd5b506104a3600480360361049e91908101906127a6565b611c61565b6040516104b091906130ab565b60405180910390f35b3480156104c557600080fd5b506104e060048036036104db91908101906127e7565b611d83565b6040516104ed91906130ab565b60405180910390f35b34801561050257600080fd5b5061051d600480360361051891908101906127e7565b611dad565b60405161052a91906130ab565b60405180910390f35b34801561053f57600080fd5b5061055a600480360361055591908101906127e7565b611dd7565b6040516105679190613089565b60405180910390f35b34801561057c57600080fd5b50610585611f29565b6040516105929190613037565b60405180910390f35b3480156105a757600080fd5b506105c260048036036105bd91908101906127e7565b611f31565b6040516105cf919061328c565b60405180910390f35b3480156105e457600080fd5b506105ed6120dc565b6040516105fa91906132d0565b60405180910390f35b34801561060f57600080fd5b5061062a600480360361062591908101906127e7565b6120e2565b60405161063791906132d0565b60405180910390f35b34801561064c57600080fd5b506106676004803603610662919081019061276a565b6120fa565b60405161067491906132d0565b60405180910390f35b34801561068957600080fd5b506106a4600480360361069f91908101906127e7565b61211f565b6040516106b1919061326a565b60405180910390f35b3480156106c657600080fd5b506106e160048036036106dc91908101906127e7565b612219565b6040516106ee91906132ae565b60405180910390f35b34801561070357600080fd5b5061071e600480360361071991908101906127e7565b6122fe565b60405161072d939291906133ea565b60405180910390f35b34801561074257600080fd5b5061075d600480360361075891908101906127e7565b612328565b60405161076a91906132d0565b60405180910390f35b34801561077f57600080fd5b50610788612420565b60405161079591906132d0565b60405180910390f35b60006107a983611d83565b15156107ea576040517f08c379a00000000000000000000000000000000000000000000000000000000081526004016107e1906130ef565b60405180910390fd5b6000606060086000868152602001908152602001600020805480602002602001604051908101604052809291908181526020016000905b828210156108e3578382906000526020600020906005020160a06040519081016040529081600082015481526020016001820160009054906101000a900473ffffffffffffffffffffffffffffffffffffffff1673ffffffffffffffffffffffffffffffffffffffff1673ffffffffffffffffffffffffffffffffffffffff16815260200160028201548152602001600382015481526020016004820160009054906101000a900460ff16151515158152505081526020019060010190610821565b50505050905060008090505b815181101561093b57610900612426565b828281518110151561090e57fe5b906020019060200201519050858160600151141561092d576001840193505b5080806001019150506108ef565b50819250505092915050565b60038181548110151561095657fe5b90600052602060002090600602016000915090508060000154908060020154908060030160009054906101000a900460ff16908060040154908060050160009054906101000a900460ff16905085565b6000600254905090565b60006109ba61246e565b6005600084815260200190815260200160002060c060405190810160405290816000820154815260200160018201805480602002602001604051908101604052809291908181526020016000905b82821015610ae6578382906000526020600020906002020160408051908101604052908160008201548152602001600182018054600181600116156101000203166002900480601f016020809104026020016040519081016040528092919081815260200182805460018160011615610100020316600290048015610ace5780601f10610aa357610100808354040283529160200191610ace565b820191906000526020600020905b815481529060010190602001808311610ab157829003601f168201915b50505050508152505081526020019060010190610a08565b505050508152602001600282015481526020016003820160009054906101000a900460ff16151515158152602001600482015481526020016005820160009054906101000a900460ff166001811115610b3b57fe5b6001811115610b4657fe5b8152505090508060600151915050919050565b610b61612426565b6008600084815260200190815260200160002082815481101515610b8157fe5b906000526020600020906005020160a06040519081016040529081600082015481526020016001820160009054906101000a900473ffffffffffffffffffffffffffffffffffffffff1673ffffffffffffffffffffffffffffffffffffffff1673ffffffffffffffffffffffffffffffffffffffff16815260200160028201548152602001600382015481526020016004820160009054906101000a900460ff161515151581525050905092915050565b600860205281600052604060002081815481101515610c4d57fe5b9060005260206000209060050201600091509150508060000154908060010160009054906101000a900473ffffffffffffffffffffffffffffffffffffffff16908060020154908060030154908060040160009054906101000a900460ff16905085565b60056020528060005260406000206000915090508060000154908060020154908060030160009054906101000a900460ff16908060040154908060050160009054906101000a900460ff16905085565b6000809054906101000a900473ffffffffffffffffffffffffffffffffffffffff1673ffffffffffffffffffffffffffffffffffffffff163373ffffffffffffffffffffffffffffffffffffffff16141515610d5c57600080fd5b6000809054906101000a900473ffffffffffffffffffffffffffffffffffffffff1673ffffffffffffffffffffffffffffffffffffffff166108fc3073ffffffffffffffffffffffffffffffffffffffff16319081150290604051600060405180830381858888f19350505050158015610dda573d6000803e3d6000fd5b50565b60008060009054906101000a900473ffffffffffffffffffffffffffffffffffffffff1673ffffffffffffffffffffffffffffffffffffffff163373ffffffffffffffffffffffffffffffffffffffff16141515610e3a57600080fd5b610e4382611d83565b1515610e84576040517f08c379a0000000000000000000000000000000000000000000000000000000008152600401610e7b906130ef565b60405180910390fd5b610e8d826109b0565b151515610ecf576040517f08c379a0000000000000000000000000000000000000000000000000000000008152600401610ec6906131af565b60405180910390fd5b610ed76124b2565b6004600084815260200190815260200160002060806040519081016040529081600082015481526020016001820154815260200160028201805480602002602001604051908101604052809291908181526020018280548015610f5957602002820191906000526020600020905b815481526020019060010190808311610f45575b505050505081526020016003820154815250509050606060086000858152602001908152602001600020805480602002602001604051908101604052809291908181526020016000905b82821015611065578382906000526020600020906005020160a06040519081016040529081600082015481526020016001820160009054906101000a900473ffffffffffffffffffffffffffffffffffffffff1673ffffffffffffffffffffffffffffffffffffffff1673ffffffffffffffffffffffffffffffffffffffff16815260200160028201548152602001600382015481526020016004820160009054906101000a900460ff16151515158152505081526020019060010190610fa3565b50505050905060008090505b81518111151561131557611083612426565b828281518110151561109157fe5b906020019060200201519050600081602001519050600081905060008190506000600760008373ffffffffffffffffffffffffffffffffffffffff1673ffffffffffffffffffffffffffffffffffffffff16815260200190815260200160002060008b815260200190815260200160002054111515611145576040517f08c379a000000000000000000000000000000000000000000000000000000000815260040161113c9061314f565b60405180910390fd5b6000600285600001510290508460800151151515611198576040517f08c379a000000000000000000000000000000000000000000000000000000000815260040161118f9061312f565b60405180910390fd5b876020015185606001511415156111b3575050505050611308565b3073ffffffffffffffffffffffffffffffffffffffff16318110151561120e576040517f08c379a00000000000000000000000000000000000000000000000000000000081526004016112059061310f565b60405180910390fd5b8173ffffffffffffffffffffffffffffffffffffffff166108fc829081150290604051600060405180830381858888f19350505050158015611254573d6000803e3d6000fd5b506000600760008473ffffffffffffffffffffffffffffffffffffffff1673ffffffffffffffffffffffffffffffffffffffff16815260200190815260200160002060008c81526020019081526020016000208190555060018560800190151590811515815250507f370c4915cb40b56424d8b2035d9a80ba6001f223c4ef57f01f158ad099cfa4f382828c6040516112ef93929190613052565b60405180910390a1600198505050505050505050611319565b8080600101915050611071565b5050505b919050565b60008060009054906101000a900473ffffffffffffffffffffffffffffffffffffffff1673ffffffffffffffffffffffffffffffffffffffff163373ffffffffffffffffffffffffffffffffffffffff1614151561137b57600080fd5b3073ffffffffffffffffffffffffffffffffffffffff1631905090565b6000806000341115156113e0576040517f08c379a00000000000000000000000000000000000000000000000000000000081526004016113d7906131ef565b60405180910390fd5b6113e984611d83565b151561142a576040517f08c379a00000000000000000000000000000000000000000000000000000000081526004016114219061322f565b60405180910390fd5b611433846109b0565b1515611474576040517f08c379a000000000000000000000000000000000000000000000000000000000815260040161146b9061316f565b60405180910390fd5b61147d83611dad565b15156114be576040517f08c379a00000000000000000000000000000000000000000000000000000000081526004016114b59061318f565b60405180910390fd5b6114c661246e565b6005600086815260200190815260200160002060c060405190810160405290816000820154815260200160018201805480602002602001604051908101604052809291908181526020016000905b828210156115f2578382906000526020600020906002020160408051908101604052908160008201548152602001600182018054600181600116156101000203166002900480601f0160208091040260200160405190810160405280929190818152602001828054600181600116156101000203166002900480156115da5780601f106115af576101008083540402835291602001916115da565b820191906000526020600020905b8154815290600101906020018083116115bd57829003601f168201915b50505050508152505081526020019060010190611514565b505050508152602001600282015481526020016003820160009054906101000a900460ff16151515158152602001600482015481526020016005820160009054906101000a900460ff16600181111561164757fe5b600181111561165257fe5b8152505090508060400151421115156116a0576040517f08c379a0000000000000000000000000000000000000000000000000000000008152600401611697906131cf565b60405180910390fd5b6116a8612426565b33816020019073ffffffffffffffffffffffffffffffffffffffff16908173ffffffffffffffffffffffffffffffffffffffff1681525050816000015181604001818152505034816000018181525050848160600181815250506000816080019015159081151581525050600160066000888152602001908152602001600020600082825401925050819055508060000151600760003373ffffffffffffffffffffffffffffffffffffffff1673ffffffffffffffffffffffffffffffffffffffff1681526020019081526020016000206000888152602001908152602001600020600082825401925050819055506008600087815260200190815260200160002081908060018154018082558091505090600182039060005260206000209060050201600090919290919091506000820151816000015560208201518160010160006101000a81548173ffffffffffffffffffffffffffffffffffffffff021916908373ffffffffffffffffffffffffffffffffffffffff160217905550604082015181600201556060820151816003015560808201518160040160006101000a81548160ff0219169083151502179055505050506000600160086000898152602001908152602001600020805490500390507f7ab0e703cd6cf064ec7fc7f28f252c56b4115ced516ed001392041fec8142cec338360000151836040516118b393929190613052565b60405180910390a1600181945094505050509250929050565b6000600154905090565b60008060009054906101000a900473ffffffffffffffffffffffffffffffffffffffff1673ffffffffffffffffffffffffffffffffffffffff163373ffffffffffffffffffffffffffffffffffffffff1614151561193357600080fd5b60026000815480929190600101919050555060006005600060025481526020019081526020016000209050600254816000018190555060018160030160006101000a81548160ff02191690831515021790555060008160050160006101000a81548160ff021916908360018111156119a757fe5b021790555083816002018190555060008090505b8351811015611aab576119e484828151811015156119d557fe5b90602001906020020151611dad565b1515611a25576040517f08c379a0000000000000000000000000000000000000000000000000000000008152600401611a1c9061320f565b60405180910390fd5b81600101611a498583815181101515611a3a57fe5b90602001906020020151612219565b90806001815401808255809150509060018203906000526020600020906002020160009091929091909150600082015181600001556020820151816001019080519060200190611a9a9291906124db565b5050505080806001019150506119bb565b506001600b6000600254815260200190815260200160002060006101000a81548160ff0219169083151502179055507fa26856d25e558c79e1632806bc6824075cf59885a115825f2aab62385a3f714260025442604051611b0d92919061336e565b60405180910390a1600191505092915050565b60008060009054906101000a900473ffffffffffffffffffffffffffffffffffffffff1673ffffffffffffffffffffffffffffffffffffffff163373ffffffffffffffffffffffffffffffffffffffff16141515611b7d57600080fd5b600060056000868152602001908152602001600020905083816004018190555060008160030160006101000a81548160ff02191690831515021790555060018160050160006101000a81548160ff02191690836001811115611bdb57fe5b0217905550600060046000878152602001908152602001600020905084816001018190555085816000018190555083816002019080519060200190611c2192919061255b565b504281600301819055506001925050509392505050565b60008060009054906101000a900473ffffffffffffffffffffffffffffffffffffffff16905090565b60008060009054906101000a900473ffffffffffffffffffffffffffffffffffffffff1673ffffffffffffffffffffffffffffffffffffffff163373ffffffffffffffffffffffffffffffffffffffff16141515611cbe57600080fd5b60016000815480929190600101919050555060006009600060015481526020019081526020016000209050600154816000018190555082816001019080519060200190611d0c9291906125a8565b506001600a6000600154815260200190815260200160002060006101000a81548160ff0219169083151502179055507fc3b029df08ed9ea719fd1c58c4d3d726a3fd9440ad7c60dfced9f96646f0d7f660015482600101604051611d7192919061333e565b60405180910390a16001915050919050565b6000600b600083815260200190815260200160002060009054906101000a900460ff169050919050565b6000600a600083815260200190815260200160002060009054906101000a900460ff169050919050565b6060611de282611d83565b1515611e23576040517f08c379a0000000000000000000000000000000000000000000000000000000008152600401611e1a906130ef565b60405180910390fd5b606060086000848152602001908152602001600020805480602002602001604051908101604052809291908181526020016000905b82821015611f1a578382906000526020600020906005020160a06040519081016040529081600082015481526020016001820160009054906101000a900473ffffffffffffffffffffffffffffffffffffffff1673ffffffffffffffffffffffffffffffffffffffff1673ffffffffffffffffffffffffffffffffffffffff16815260200160028201548152602001600382015481526020016004820160009054906101000a900460ff16151515158152505081526020019060010190611e58565b50505050905080915050919050565b600030905090565b611f3961246e565b611f4161246e565b6005600084815260200190815260200160002060c060405190810160405290816000820154815260200160018201805480602002602001604051908101604052809291908181526020016000905b8282101561206d578382906000526020600020906002020160408051908101604052908160008201548152602001600182018054600181600116156101000203166002900480601f0160208091040260200160405190810160405280929190818152602001828054600181600116156101000203166002900480156120555780601f1061202a57610100808354040283529160200191612055565b820191906000526020600020905b81548152906001019060200180831161203857829003601f168201915b50505050508152505081526020019060010190611f8f565b505050508152602001600282015481526020016003820160009054906101000a900460ff16151515158152602001600482015481526020016005820160009054906101000a900460ff1660018111156120c257fe5b60018111156120cd57fe5b81525050905080915050919050565b60015481565b60066020528060005260406000206000915090505481565b6007602052816000526040600020602052806000526040600020600091509150505481565b6121276124b2565b61213082611d83565b1515612171576040517f08c379a0000000000000000000000000000000000000000000000000000000008152600401612168906130ef565b60405180910390fd5b6121796124b2565b60046000848152602001908152602001600020608060405190810160405290816000820154815260200160018201548152602001600282018054806020026020016040519081016040528092919081815260200182805480156121fb57602002820191906000526020600020905b8154815260200190600101908083116121e7575b50505050508152602001600382015481525050905080915050919050565b612221612628565b612229612628565b6009600084815260200190815260200160002060408051908101604052908160008201548152602001600182018054600181600116156101000203166002900480601f0160208091040260200160405190810160405280929190818152602001828054600181600116156101000203166002900480156122ea5780601f106122bf576101008083540402835291602001916122ea565b820191906000526020600020905b8154815290600101906020018083116122cd57829003601f168201915b505050505081525050905080915050919050565b60046020528060005260406000206000915090508060000154908060010154908060030154905083565b600061233382611d83565b1515612374576040517f08c379a000000000000000000000000000000000000000000000000000000000815260040161236b906130ef565b60405180910390fd5b61237c6124b2565b60046000848152602001908152602001600020608060405190810160405290816000820154815260200160018201548152602001600282018054806020026020016040519081016040528092919081815260200182805480156123fe57602002820191906000526020600020905b8154815260200190600101908083116123ea575b5050505050815260200160038201548152505090508060200151915050919050565b60025481565b60a06040519081016040528060008152602001600073ffffffffffffffffffffffffffffffffffffffff16815260200160008152602001600081526020016000151581525090565b60c06040519081016040528060008152602001606081526020016000815260200160001515815260200160008152602001600060018111156124ac57fe5b81525090565b608060405190810160405280600081526020016000815260200160608152602001600081525090565b828054600181600116156101000203166002900490600052602060002090601f016020900481019282601f1061251c57805160ff191683800117855561254a565b8280016001018555821561254a579182015b8281111561254957825182559160200191906001019061252e565b5b5090506125579190612642565b5090565b828054828255906000526020600020908101928215612597579160200282015b8281111561259657825182559160200191906001019061257b565b5b5090506125a49190612642565b5090565b828054600181600116156101000203166002900490600052602060002090601f016020900481019282601f106125e957805160ff1916838001178555612617565b82800160010185558215612617579182015b828111156126165782518255916020019190600101906125fb565b5b5090506126249190612642565b5090565b604080519081016040528060008152602001606081525090565b61266491905b80821115612660576000816000905550600101612648565b5090565b90565b6000612673823561358c565b905092915050565b600082601f830112151561268e57600080fd5b81356126a161269c8261344e565b613421565b915081818352602084019350602081019050838560208402820111156126c657600080fd5b60005b838110156126f657816126dc8882612756565b8452602084019350602083019250506001810190506126c9565b5050505092915050565b600082601f830112151561271357600080fd5b813561272661272182613476565b613421565b9150808252602083016020830185838301111561274257600080fd5b61274d8382846135f0565b50505092915050565b6000612762823561359e565b905092915050565b6000806040838503121561277d57600080fd5b600061278b85828601612667565b925050602061279c85828601612756565b9150509250929050565b6000602082840312156127b857600080fd5b600082013567ffffffffffffffff8111156127d257600080fd5b6127de84828501612700565b91505092915050565b6000602082840312156127f957600080fd5b600061280784828501612756565b91505092915050565b6000806040838503121561282357600080fd5b600061283185828601612756565b925050602083013567ffffffffffffffff81111561284e57600080fd5b61285a8582860161267b565b9150509250929050565b6000806040838503121561287757600080fd5b600061288585828601612756565b925050602061289685828601612756565b9150509250929050565b6000806000606084860312156128b557600080fd5b60006128c386828701612756565b93505060206128d486828701612756565b925050604084013567ffffffffffffffff8111156128f157600080fd5b6128fd8682870161267b565b9150509250925092565b612910816135a8565b82525050565b61291f8161352e565b82525050565b6000612930826134db565b808452602084019350612942836134a2565b60005b8281101561297457612958868351612e5a565b61296182613507565b915060a086019550600181019050612945565b50849250505092915050565b600061298b826134e6565b808452602084019350836020820285016129a4856134af565b60005b848110156129dd5783830388526129bf838351612feb565b92506129ca82613514565b91506020880197506001810190506129a7565b508196508694505050505092915050565b60006129f9826134f1565b808452602084019350612a0b836134bc565b60005b82811015612a3d57612a21868351613028565b612a2a82613521565b9150602086019550600181019050612a0e565b50849250505092915050565b612a5281613540565b82525050565b612a61816135ba565b82525050565b6000612a72826134fc565b808452612a868160208601602086016135ff565b612a8f81613632565b602085010191505092915050565b600081546001811660008114612aba5760018114612ada57612b1b565b607f600283041680865260ff198316602087015260408601935050612b1b565b60028204808652602086019550612af0856134c9565b60005b82811015612b1257815481890152600182019150602081019050612af3565b80880195505050505b505092915050565b6000601882527f496e76616c69642067616d652049642070726f766964656400000000000000006020830152604082019050919050565b6000602a82527f496e756666696369656e742062616c616e636520706c6561736520747279206160208301527f6761696e206c61746572000000000000000000000000000000000000000000006040830152606082019050919050565b6000601482527f42657420616c72656164792070616964206f75740000000000000000000000006020830152604082019050919050565b6000601882527f596f7572207374616b652063616e6e6f742062652020302000000000000000006020830152604082019050919050565b6000602082527f596f752063616e206f6e6c7920626574206f6e206163746976652067616d65736020830152604082019050919050565b6000601882527f496e76616c6964207465616d2049642070726f766964656400000000000000006020830152604082019050919050565b6000603082527f20596f752063616e206f6e6c792072657175657374207061796d656e7420616660208301527f7465722067616d65206973206f766572000000000000000000000000000000006040830152606082019050919050565b6000601882527f47616d6520616c726561647920696e2070726f677265737300000000000000006020830152604082019050919050565b6000602282527f596f75206d7573742073656e6420796f757220616d6f756e7420746f2073746160208301527f6b650000000000000000000000000000000000000000000000000000000000006040830152606082019050919050565b6000601882527f54686973207465616d20646f6573206e6f7420657869737400000000000000006020830152604082019050919050565b6000600f82527f496e76616c69642067616d6520496400000000000000000000000000000000006020830152604082019050919050565b60a082016000820151612e086000850182613028565b506020820151612e1b6020850182612916565b506040820151612e2e6040850182613028565b506060820151612e416060850182613028565b506080820151612e546080850182612a49565b50505050565b60a082016000820151612e706000850182613028565b506020820151612e836020850182612916565b506040820151612e966040850182613028565b506060820151612ea96060850182613028565b506080820151612ebc6080850182612a49565b50505050565b6000608083016000830151612eda6000860182613028565b506020830151612eed6020860182613028565b5060408301518482036040860152612f0582826129ee565b9150506060830151612f1a6060860182613028565b508091505092915050565b600060c083016000830151612f3d6000860182613028565b5060208301518482036020860152612f558282612980565b9150506040830151612f6a6040860182613028565b506060830151612f7d6060860182612a49565b506080830151612f906080860182613028565b5060a0830151612fa360a0860182612a58565b508091505092915050565b6000604083016000830151612fc66000860182613028565b5060208301518482036020860152612fde8282612a67565b9150508091505092915050565b60006040830160008301516130036000860182613028565b506020830151848203602086015261301b8282612a67565b9150508091505092915050565b61303181613582565b82525050565b600060208201905061304c6000830184612916565b92915050565b60006060820190506130676000830186612907565b6130746020830185613028565b6130816040830184613028565b949350505050565b600060208201905081810360008301526130a38184612925565b905092915050565b60006020820190506130c06000830184612a49565b92915050565b60006040820190506130db6000830185612a49565b6130e86020830184613028565b9392505050565b6000602082019050818103600083015261310881612b23565b9050919050565b6000602082019050818103600083015261312881612b5a565b9050919050565b6000602082019050818103600083015261314881612bb7565b9050919050565b6000602082019050818103600083015261316881612bee565b9050919050565b6000602082019050818103600083015261318881612c25565b9050919050565b600060208201905081810360008301526131a881612c5c565b9050919050565b600060208201905081810360008301526131c881612c93565b9050919050565b600060208201905081810360008301526131e881612cf0565b9050919050565b6000602082019050818103600083015261320881612d27565b9050919050565b6000602082019050818103600083015261322881612d84565b9050919050565b6000602082019050818103600083015261324881612dbb565b9050919050565b600060a0820190506132646000830184612df2565b92915050565b600060208201905081810360008301526132848184612ec2565b905092915050565b600060208201905081810360008301526132a68184612f25565b905092915050565b600060208201905081810360008301526132c88184612fae565b905092915050565b60006020820190506132e56000830184613028565b92915050565b600060a0820190506133006000830188613028565b61330d6020830187612916565b61331a6040830186613028565b6133276060830185613028565b6133346080830184612a49565b9695505050505050565b60006040820190506133536000830185613028565b81810360208301526133658184612a9d565b90509392505050565b60006040820190506133836000830185613028565b6133906020830184613028565b9392505050565b600060a0820190506133ac6000830188613028565b6133b96020830187613028565b6133c66040830186612a49565b6133d36060830185613028565b6133e06080830184612a58565b9695505050505050565b60006060820190506133ff6000830186613028565b61340c6020830185613028565b6134196040830184613028565b949350505050565b6000604051905081810181811067ffffffffffffffff8211171561344457600080fd5b8060405250919050565b600067ffffffffffffffff82111561346557600080fd5b602082029050602081019050919050565b600067ffffffffffffffff82111561348d57600080fd5b601f19601f8301169050602081019050919050565b6000602082019050919050565b6000602082019050919050565b6000602082019050919050565b60008160005260206000209050919050565b600081519050919050565b600081519050919050565b600081519050919050565b600081519050919050565b6000602082019050919050565b6000602082019050919050565b6000602082019050919050565b600061353982613562565b9050919050565b60008115159050919050565b600060028210151561355a57fe5b819050919050565b600073ffffffffffffffffffffffffffffffffffffffff82169050919050565b6000819050919050565b600061359782613562565b9050919050565b6000819050919050565b60006135b3826135cc565b9050919050565b60006135c58261354c565b9050919050565b60006135d7826135de565b9050919050565b60006135e982613562565b9050919050565b82818337600083830152505050565b60005b8381101561361d578082015181840152602081019050613602565b8381111561362c576000848401525b50505050565b6000601f19601f830116905091905056fea265627a7a7230582047dceb5448d29e4e13ecf31c34810d9fdd5e0cd68ad83086abecf22a5d01f2216c6578706572696d656e74616cf50037",
  "source": "pragma solidity 0.5.1;\r\npragma experimental ABIEncoderV2;\r\n\r\ncontract DappyBet{\r\n    \r\n    address payable owner;\r\n    \r\n    uint public teamsCount;\r\n    uint public gamesCount;\r\n    \r\n    Game[] public games;\r\n    mapping(uint => GameResults) public gamesResults;\r\n    mapping(uint => Game) public gamesMapping;\r\n    mapping(uint => uint) public matchStakesCount;\r\n    mapping(address => mapping(uint => uint)) public gamersBalances;\r\n    mapping(uint => Bet[]) public gameBets;\r\n    \r\n    mapping(uint => Team) teamsIdMapping;\r\n    mapping(uint => bool) teamExist;\r\n    mapping(uint => bool) gameIdValid;\r\n    \r\n    // Enums\r\n    \r\n    enum GameStatus{Open, Locked}\r\n    \r\n    //Structs\r\n    \r\n    struct Team{\r\n        uint id;\r\n        string name;\r\n    }\r\n    \r\n    struct Game{\r\n        \r\n        uint id;\r\n        Team[] involvedTeams;\r\n        uint lockTime;\r\n        bool active;\r\n        uint winner;\r\n        GameStatus status;\r\n    }\r\n    \r\n    struct Bet{\r\n        \r\n        uint amount;\r\n        address staker;\r\n        uint gameId;\r\n        uint betOn; //teamId;\r\n        bool paid;\r\n    }\r\n    \r\n    struct GameResults{\r\n        \r\n        uint gameId;\r\n        uint won;\r\n        uint[] scores;\r\n        uint timestamp;\r\n    }\r\n    \r\n    //Events\r\n    \r\n    event BetPaid(address recipient, uint amount, uint gameId);\r\n    event BetStaked(address staker, uint amount, uint betId);\r\n    event TeamCreated(uint teamId, string teamName);\r\n    event GameCreated(uint gameId, uint timestamp);\r\n    \r\n    //Function modifiers\r\n    \r\n    modifier onlyOwner(){\r\n        \r\n        require(msg.sender == owner);\r\n        _;\r\n    }\r\n    \r\n    constructor() public {\r\n        \r\n        owner = msg.sender;\r\n    }\r\n    \r\n    function() external payable{}\r\n    \r\n    function createTeam(string memory _name) public onlyOwner returns(bool){\r\n        \r\n        teamsCount++;\r\n        Team storage team = teamsIdMapping[teamsCount];\r\n        team.id = teamsCount;\r\n        team.name = _name;\r\n        teamExist[teamsCount] = true;\r\n        emit TeamCreated(teamsCount, team.name);\r\n        return true;\r\n    }\r\n    \r\n    function createGame(uint locktime, uint[] memory _teams ) public onlyOwner returns(bool){\r\n\r\n        gamesCount++;\r\n        \r\n        Game storage game = gamesMapping[gamesCount];\r\n        game.id = gamesCount;\r\n        game.active = true;\r\n        game.status = GameStatus.Open;\r\n        game.lockTime = locktime;\r\n        \r\n        for(uint i = 0; i < _teams.length; i++){\r\n            \r\n           require(teamExists(_teams[i]), \"This team does not exist\");\r\n           game.involvedTeams.push(getTeamById(_teams[i])) ; \r\n           \r\n        }\r\n        \r\n        gameIdValid[gamesCount] = true;\r\n        \r\n        emit GameCreated(gamesCount, now);\r\n\r\n        return true;\r\n    }\r\n    \r\n    function bet(uint _gameId, uint _teamId) public payable returns(bool, uint _betId){\r\n        \r\n        require(msg.value > 0, \"You must send your amount to stake\");\r\n        \r\n        require(isValidGamesId(_gameId), \"Invalid game Id\");\r\n        \r\n        require(isGameActive(_gameId), \"You can only bet on active games\");\r\n        require(teamExists(_teamId), \"Invalid team Id provided\");\r\n        \r\n        Game memory game = gamesMapping[_gameId];\r\n        \r\n        //needs to be corrected to a \" < \" less than sign\r\n        // using \" > \" only for testing\r\n        require( now > game.lockTime, \"Game already in progress\");\r\n        \r\n        Bet memory bet;\r\n        bet.staker = msg.sender;\r\n        bet.gameId = game.id;\r\n        bet.amount = uint(msg.value);\r\n        bet.betOn = _teamId;\r\n        bet.paid = false;\r\n        matchStakesCount[_gameId] += 1;\r\n        gamersBalances[msg.sender][_gameId] += uint(bet.amount);\r\n        gameBets[_gameId].push(bet);\r\n        uint betId = gameBets[_gameId].length -1 ;\r\n        emit BetStaked(msg.sender, bet.amount, betId);\r\n\r\n        return (true, betId);\r\n    }\r\n    \r\n    function setGameResults(uint _gameId, uint _winner, uint[] memory _scores) public onlyOwner returns(bool){\r\n        \r\n        Game storage game = gamesMapping[_gameId];\r\n        game.winner = _winner;\r\n        game.active = false;\r\n        game.status = GameStatus.Locked;\r\n        GameResults storage result = gamesResults[_gameId];\r\n        result.won = _winner;\r\n        result.gameId = _gameId;\r\n        result.scores = _scores;\r\n        result.timestamp = now;\r\n        return true;\r\n     }\r\n     \r\n    function payOutWinners(uint _gameId) public payable onlyOwner returns(bool){\r\n        \r\n        require(isValidGamesId(_gameId), \"Invalid game Id provided\");\r\n        require(!isGameActive(_gameId), \" You can only request payment after game is over\");\r\n        \r\n        GameResults memory gameResult = gamesResults[_gameId];\r\n        \r\n        Bet[] memory allBets = gameBets[_gameId];\r\n        \r\n        for(uint i = 0; i <= allBets.length; i++){\r\n            \r\n            Bet memory bet = allBets[i];\r\n            \r\n            address staker = bet.staker;\r\n            uint160 stakerInt = uint160(staker);\r\n            address payable betStaker = address(stakerInt);\r\n            \r\n            require(gamersBalances[betStaker][_gameId] > 0, \"Your stake cannot be  0 \");\r\n            \r\n            uint amountToPay = bet.amount * 2;\r\n            \r\n            require(!bet.paid, \"Bet already paid out\");\r\n            \r\n            if(bet.betOn != gameResult.won ){\r\n                \r\n                continue;\r\n                \r\n            }else{\r\n                \r\n                require(amountToPay < address(this).balance, \"Inufficient balance please try again later\");\r\n                betStaker.transfer(amountToPay);\r\n                gamersBalances[betStaker][_gameId] = 0;\r\n                bet.paid = true;\r\n            }\r\n            emit BetPaid( betStaker,  amountToPay, _gameId);\r\n            return true;\r\n        }\r\n   }\r\n    \r\n    function isValidGamesId(uint _gameId) public view returns(bool){\r\n         \r\n         return gameIdValid[_gameId];\r\n     }\r\n    \r\n    function getGameFullDetails(uint _gameId) public view returns(Game memory){\r\n        \r\n        Game memory game =  gamesMapping[_gameId];\r\n        return game;\r\n    }\r\n    \r\n    function getGamesCount() public view returns(uint){\r\n        \r\n        return gamesCount;\r\n    }\r\n    \r\n    function getTeamsCount() public view returns(uint){\r\n        \r\n        return teamsCount;\r\n    }\r\n\r\n    function getTeamById(uint _teamId) public view returns(Team memory team){\r\n        \r\n        Team memory team = teamsIdMapping[_teamId];\r\n        return team;\r\n    }\r\n\r\n    function isGameActive( uint _id) public view returns(bool){\r\n        \r\n        Game memory game = gamesMapping[_id];\r\n        return game.active;\r\n    }\r\n\r\n    function teamExists(uint _teamId) public view returns(bool){\r\n    \r\n        return teamExist[_teamId];\r\n    }\r\n     \r\n    function getWinnerTeam(uint _gameId) public view returns(uint){\r\n         \r\n         require(isValidGamesId(_gameId), \"Invalid game Id provided\");\r\n         GameResults memory result = gamesResults[_gameId];\r\n         return result.won;\r\n     }\r\n     \r\n     function getContractBalance() public view onlyOwner returns(uint){\r\n         \r\n         return address(this).balance;\r\n     }\r\n     \r\n     function getContractAddr() public view returns(address){\r\n        \r\n         return address(this);\r\n     }\r\n    \r\n     function getOwner() public view returns(address){\r\n         \r\n         return owner;\r\n     }\r\n     \r\n    function getBetById(uint _gameId ,uint _betId) public view returns(Bet memory bet){\r\n        \r\n          bet = gameBets[_gameId][_betId];\r\n    }\r\n    \r\n    function getGameResults(uint _gameId) public view returns(GameResults memory){\r\n        \r\n        require(isValidGamesId(_gameId), \"Invalid game Id provided\");\r\n        GameResults memory result = gamesResults[_gameId];\r\n        return result;\r\n        \r\n    }\r\n    \r\n    function getGameBets(uint _gameId) public view returns(Bet[] memory){\r\n        \r\n        require(isValidGamesId(_gameId), \"Invalid game Id provided\");\r\n        Bet[] memory bets = gameBets[_gameId];\r\n        return bets;\r\n    }\r\n    \r\n    function getGameBetWinnersCount(uint _gameId, uint _wonTeam) public view returns(uint){\r\n        \r\n        require(isValidGamesId(_gameId), \"Invalid game Id provided\");\r\n        uint count;\r\n        Bet[] memory allBets = gameBets[_gameId];\r\n        \r\n        for(uint i = 0; i < allBets.length; i++){\r\n            Bet memory bet = allBets[i];\r\n            \r\n            if(bet.betOn == _wonTeam) count += 1;\r\n        }\r\n        \r\n       return count;\r\n    }\r\n    \r\n    function withdraw() public payable onlyOwner {\r\n        \r\n        owner.transfer(address(this).balance);\r\n    }\r\n    \r\n}",
  "sourcePath": "C:/Users/James/Desktop/NODESTUFF/NEW-BC-PROJECTS/BETTING-CONTRACT/contracts/DappyBet.sol",
  "compiler": {
    "name": "solc",
    "version": "0.5.1+commit.c8a2cb62.Emscripten.clang"
  },
  "schemaVersion": "3.0.2",
  "updatedAt": "2019-08-22T12:37:18.361Z",
  "devdoc": {
    "methods": {}
  },
  "userdoc": {
    "methods": {}
  }
}